:020000002F29A6
:1000060083120313FB01FA01F9018030F800F10CA9
:10001600F00C031C17287408F90775080318750FE8
:10002600FA070318FB0A0310F01F1F287408FA07C3
:1000360075080318750FFB07FB0CFA0CF90CF80C86
:10004600031C0A287B08F3007A08F2007908F100FD
:060056007808F00008002C
:10005C0083160313071583121211F030970508004D
:0C006C008312031395011712971208006D
:0E0078008312031321088A002008820008006A
:10008600831603130711831212150C309704080008
:10009600831603131208013EF000F1010318F10A5A
:1000A60083122308F400F50103200630F2007008DD
:1000B600F4007108F500720803196628F50CF40CB3
:1000C600F513FF3E5F280430F1007408F000710854
:1000D60003197128F00D7010FF3E6B283030700543
:1000E600F3007408F0007508F100F10CF00CF11340
:1000F600F10CF00CF113700895000F30970573089A
:040106009704080052
:10010A004320FF30A3004B200830FB009D30FC0049
:10011A000530FD00FD0B8F28FC0B8F28FB0B8F2869
:10012A00000000002E202208703A031DAB2806307A
:10013A00FB001330FC00AD30FD00FD0BA228FC0BC8
:10014A00A228FB0BA22800000000F02822086D3A22
:10015A00031DBE281030FB003930FC000D30FD00B5
:10016A00FD0BB528FC0BB528FB0BB52800000000D9
:10017A00F0282208673A031DD0281530FB004B30BF
:10018A00FC00BE30FD00FD0BC828FC0BC828FB0B89
:10019A00C8280000F0282208783A031DE2281A30FD
:1001AA00FB005E30FC006E30FD00FD0BDA28FC0B14
:1001BA00DA28FB0BDA280000F0281030FB0039306F
:1001CA00FC000D30FD00FD0BE828FC0BE828FB0BBA
:1001DA00E8280000000043201E30A3004B2008300E
:1001EA00FB009D30FC000530FD00FD0BFA28FC0BDE
:0E01FA00FA28FB0BFA28000000002E20080057
:100208003C208A110A128000840AA00A0319A10A54
:08021800F003031D0429080096
:100220008316031788018901FF30831203138500A9
:10023000FF308316850083128601831686018312A0
:10024000870183168701831203178713881303130B
:0E02500012149214F930831692003620080022
:0C025E0010217030A200852030293429C6
:04400E00F22F000786
:00000001FF
