:02000000A82A2C
:06000600000000000800EC
:0E000C00213083120313FD00FD0B0A280800AB
:10001A000F3083120313FC004730FD00FD0B132839
:0A002A00FC0B132800000000080082
:1000340083160313DA1B21288312851123288312C4
:10004400851583165A1B2928831205112B28831220
:1000540005158316DA1A3128831285103328831282
:10006400851483165A1A3928831205103B288312E3
:1000740005146F183F28051640280512851603201D
:1000840085128316DA194928831285114B288312A5
:10009400851583165A195128831205115328831282
:1000A40005158316DA185928831285105B288312E4
:1000B400851483165A186128831205106328831245
:1000C40005146F186728051668280512851603207D
:0E00D40085126F1C6F280D2070280620080072
:1000E200831203136F1083165508DA001A206F1457
:0200F200080004
:1000F400831203137008F100F0010830FC0071084A
:10010400F40C03188928FC0B8228F1010034031035
:100114008E28F40C0318F107F10CF00CFC0B8B285F
:020124000800D1
:0A012600FF30831603138800080061
:10013000831603138512051205108510051185110C
:1001400083128512051285110511851005100D20E9
:100150000D200D20851405148516032085120D2011
:100160008516032085120D208516032085120D208B
:1001700005108516032085120D2085160320851293
:10018000851085158516032085120D20851105140F
:1001900085160320851205108516032085120D2073
:1001A00085160320851205148516032085120D205F
:1001B000051085160320851285150515851405146F
:0C01C0008516032085120D206F14080026
:1001CC0083160313D001033050020318F328500890
:0C01DC00683E84008001D00AE928080079
:1001E800063083120313FD00FD0BF82800000800F9
:1001F80083160313D501D701D8011030D900043074
:10020800580203182A29F0308312880083165909E6
:100218008800032003200F3083120805F0007008BF
:100228008316D6007008031924295708D5005608E4
:1002380003192229D60CD613D50A1B290430D80055
:10024800D90D59100430D707D80A03295508F000EA
:0202580008009C
:0E025A00831603134F088A004E088200080026
:10026800FC207008D1000F3083120805F000031934
:0E0278003F29F420372983165108F0000800B2
:10028600831603135108831203178D0083168C13EC
:0A0296000C1483120C08F00008009D
:1002A0006229803083160313D1007529C030D10034
:1002B00075299430D1007529D430D100752980304A
:1002C000D1007529831603135108013A03195129E6
:1002D0005108023A031956295108033A03195929BA
:1002E0005108043A03195C295F295203F0005108B0
:1002F000F0077008D1007008DA001A206F1083161A
:10030000D4015408530784000008031990295408A5
:10031000530784000008D50071208316D40A812970
:0603200083126F140800B7
:100326002D218A110A128000840ACE0A0319CF0AE7
:08033600F003031D93290800E8
:10033E0083160317880189019320982001308316B4
:0E034E00DA001A200C308316DA001A2008009C
:10035C0083160313D201D301622A83126B08F000B7
:10036C000A30F4007A20700AEB006708683E8400BB
:10037C0031308000E70AA22A83126B08F0000A30A1
:10038C00F4007A2002307007EB006708683E8400A6
:10039C0032308000E70AA22A83126B08F0000A3080
:1003AC00F4007A2003307007EB006708683E840085
:1003BC0033308000E70AA22AA22A83126B08F000CD
:1003CC000A30F4007A2004307007EB006708683EAE
:1003DC00840034308000E70AA22A83126B08F000F4
:1003EC000A30F4007A2005307007EB006708683E8D
:1003FC00840035308000E70AA22A83126B08F000D3
:10040C000A30F4007A20700AEB006708683E84001A
:10041C0036308000E70AA22AA22A83126B08F00069
:10042C000A30F4007A2007307007EB006708683E4A
:10043C00840037308000E70AA22A83126B08F00090
:10044C000A30F4007A2008307007EB006708683E29
:10045C00840038308000E70AA22A83126B08F0006F
:10046C000A30F4007A2009307007EB006708683E08
:10047C00840039308000E70AA22A83124330EE0050
:10048C00A22AE6208312EB01E701A22A83126B0851
:10049C00F0000A30F4007A207008EB006708683E20
:1004AC00840030308000E70AA22A01308316D20083
:1004BC000030D300A22AA22A5108013A0319B32909
:1004CC005108023A0319C2295108033A0319D229D7
:1004DC005108043A0319E2295108053A0319E32992
:1004EC005108063A0319F3295108073A0319032A4C
:1004FC005108083A0319122A5108093A0319132A08
:10050C0051080A3A0319232A51080B3A0319332AC2
:10051C0051080C3A0319432A51080D3A0319472A7A
:10052C0051080E3A03194C2A51080F3A03195B2A49
:10053C005108103A0319612A83165208F000530827
:04054C00F1000800B2
:10055000E6239F21ED0101308316D100432170086D
:100560000313EC006D08003A031D6B2B013083165A
:10057000D1000130D200B730D300502102308316B1
:10058000D1000130D200A030D30050210330FB0055
:100590008A30FC005530FD00FD0BCC2AFC0BCC2A28
:1005A000FB0BCC2A000000008316D001063050025D
:1005B0000318EE2A1C30DA001A200330FB008A30C0
:1005C000FC005530FD00FD0BE32AFC0BE32AFB0B7E
:1005D000E32A000000008316D00AD62A0D30FB0063
:1005E000AF30FC00B630FD00FD0BF42AFC0BF42A02
:1005F000FB0BF42A00000130DA001A2001308316C8
:10060000D1000130D2003E30D3005021EE01670806
:10061000033C031C2A2B8030F0008030013A70022A
:10062000031D142B00306B0203182A2B3421700891
:100630008312EE0070088316D100AE217008831279
:10064000EE0002308316D1000130D2006830D300B2
:1006500050215C2B01308316DA001A2001308316FA
:10066000D1000130D2002C30D3005021023083164B
:10067000D1000130D2002030D30050211530FB00D2
:100680004B30FC00BE30FD00FD0B442BFC0B442B1B
:10069000FB0B442B000001308316DA001A200130D6
:1006A0008316D1000130D2005530D3005021E6200E
:1006B0008312EB01E701EE016E080319072B0130ED
:1006C0008316DA001A2001308316D1000130D200DF
:0806D0005030D30050216B2BC8
:1007CC0020308400473083120313F00071308316FD
:1007DC00CE000330CF009321A03084002E30831242
:1007EC000313F000B8308316CE000330CF009321F2
:0207FC000800F3
:1006E2006D346134783469346D346F343A34203483
:0806F200323435343534003494
:1006FA00453478346534643469346F34203465346D
:10070A006C3420346E3475346D34653472346F341D
:04071A002034003453
:10071E004E3475346D342E34203472346534703466
:10072E00653474346934633469346F346E346534CB
:04073E0073340034DC
:0A074200533441344C344934003480
:10074C004E3475346D342E34203472346534703438
:10075C00653474346934633469346F346E3465349D
:04076C0073340034AE
:1007700043346F346E34663469346734753472349C
:100780006534203473347534203450346534743413
:0E0790004634653465346434653472340034A4
:10079E002A342A342A342A342A342A344234693404
:1007AE0065346E34763465346E34693464346F3443
:0E07BE002A342A342A342A342A342A340034C5
:04400E00F22F000786
:00000001FF
