:020000002B2DA6
:10000800FF00030E83018316CE000A08CD008A0183
:1000180070088312A5007108A4007408A3007B0867
:10002800A2007C08A1007D08A0000B1D5028EA0A48
:100038000319EB0A6B08033A031D2428E8306A0603
:10004800031D3928EA01EB01EC0A060AF0007008E2
:1000580086006C083C3A031D3928EC01E90A690856
:100068003C3A031D3928E901E70A6C0883164C0657
:10007800031D5028831269086F06031D502867085E
:100088006D06031D50286E088316DC00BC24EA01A7
:10009800EB01EC01E901E70183120B1182308100C9
:1000A8002508F0002408F1002308F4002208FB00CA
:1000B8002108FC002008FD0083164D088A004E0E1A
:0800C8008300FF0E7F0E09000A
:1000D0000F3083120313FC004730FD00FD0B6E2828
:0A00E000FC0B6E2800000000080071
:0600EA0000000000080008
:0E00F000213083120313FD00FD0B7C28080055
:1000FE0083160313D701D901DA011030DB00043067
:10010E005A020318AD28F0308312880083165B095B
:10011E008800752075200F3083120805F0007008D6
:10012E008316D80070080319A7285908D700580855
:10013E000319A528D80CD813D70A9E280430DA0044
:10014E00DB0D5B100430D907DA0A86285708F00059
:02015E00080097
:1001600083120313FB01FA01F9018030F800F10C4E
:10017000F00C031CC4287408F90775080318750FE0
:10018000FA070318FB0A0310F01FCC287408FA07BB
:1001900075080318750FFB07FB0CFA0CF90CF80C2B
:1001A000031CB7287B08F3007A08F2007908F100F5
:0601B0007808F0000800D1
:1001B600063083120313FD00FD0BDF280000080044
:1001C60083160313D71BEA2883128511EC288312A2
:1001D60085158316571BF22883120511F4288312FE
:1001E60005158316D71AFA2883128510FC28831260
:1001F60085148316571A02298312051004298312BF
:10020600051483164F180A29831205160C29831222
:1002160005128516752085128316D719152983129E
:100226008511172983128515831657191D298312DF
:1002360005111F29831205158316D7182529831240
:100246008510272983128514831657182D298312A2
:1002560005102F298312051483164F18352983128A
:100266000516372983120512851675208512831601
:0C0276004F1C3F29682040297820080018
:10028200831203137008F100F0010830FC007108BA
:10029200F40C03185029FC0B4929F1010034031016
:1002A2005529F40C0318F107F10CF00CFC0B522940
:0202B200080042
:1002B400831603130711831212150C3097040800D8
:1002C4007429803083160313D4008729C030D400E6
:1002D40087299430D4008729D430D40087298030EA
:1002E400D4008729831603135408013A0319632998
:1002F4005408023A031968295408033A03196B296C
:100304005408043A03196E2971295503F00054085E
:10031400F0077008D4004F147008D700E320831648
:0E0324004F105608D700E32083164F14080030
:0E0332008312031366088A0065088200080023
:10034000831603134F105408D700E32083164F146D
:020350000800A3
:10035200063083120313FB001330FC00AD30FD00A6
:10036200FD0BB129FC0BB129FB0BB12900000000E8
:02037200080081
:100374007F207008D4000F3083120805F0000319A1
:0E038400C529DB20BD2983165408F0000800AF
:10039200831203131A08F100981CD1291812181697
:0603A2007108F0000800E4
:1003A800072A313083120313F000492A3230F00053
:1003B800492A3330F000492A4130F000492A3430C4
:1003C800F000492A3530F000492A3630F000492A31
:1003D8004230F000492A3730F000492A3830F0001E
:1003E800492A3930F000492A4330F000492A2A3096
:1003F800F000492A3030F000492A2330F000492A19
:100408004430F000492A831603135408013A0319AB
:10041800D5295408023A0319DA295408033A03196A
:10042800DD295408043A0319E0295408053A031948
:10043800E3295408063A0319E6295408073A031928
:10044800E9295408083A0319EC295408093A031908
:10045800EF2954080A3A0319F22954080B3A0319E8
:10046800F52954080C3A0319F82954080D3A0319C8
:10047800FB2954080E3A0319FE2954080F3A0319A8
:0C048800012A5408103A0319042A080045
:10049400831603131208013EF000F1010318F10A58
:1004A4005D08F400F501B0200630F2007008F40095
:1004B4007108F50072080319642AF50CF40CF5139D
:1004C400FF3E5D2A0430F1007408F000710803193E
:1004D4006F2AF00D7010FF3E692A30307005F3006A
:1004E4007408F0007508F100F10CF00CF113F10C34
:1004F400F00CF113700895000F30970573089704FA
:020504000800ED
:1005060083160313071583121211F030970508009E
:0E0516000030831203138C1A0130F00008002D
:1005240083160313D1010230D4000530D5002030E6
:10053400D60062210230D4000430D5002030D60029
:1005440062210230D4000330D5002030D60062216D
:100554000230D4000230D5002030D60062210230AF
:10056400D4000130D5002030D6006221BA217008B1
:10057400D2008B2270080319C42AC921700883167B
:10058400D200D02A831652080319B82A5208D4007C
:10059400D4218312031370088316D2005208413AFF
:1005A4000319E12A5208423A0319E12A5208433A4C
:1005B4000319E12A5208443A0319E12AE22AB82A23
:1005C40030305202031CF92A5208393C031CF92A20
:1005D4005208D400A02130305202D3000A30F00077
:1005E4005108F4004121700883165307D1005208C2
:1005F400233A031DFE2A922A52082A3A031D3C2B51
:100604000230D4000630D5004730D60062210230D3
:10061400D4000730D5007530D60062210230D400F2
:100624000830D5006130D60062210230D400093090
:10063400D5007230D60062210230D4000A30D500D1
:100644006430D60062210230D4000B30D500613012
:10065400D60062210230D4000C30D5006430D600BC
:1006640062210230D4000D30D5006F30D6006221F3
:10067400A921612B831650085102031C602B023000
:10068400D4000130D5004D30D60062210230D400B0
:100694000230D5006130D60062210230D40003302C
:1006A400D5007830D60062210230D4000530D50060
:1006B4007430D6006221A921A921922AB82A83166E
:0606C4005108F0000800DF
:1006CA00BA217008D0008B2270080319712BC92136
:1006DA0070088316D0007D2B831650080319652BEA
:1006EA005008D400D4218312031370088316D00053
:1006FA005008413A03198E2B5008423A03198E2B9F
:10070A005008433A03198E2B5008443A03198E2B8A
:10071A00EF2B0230D4000430D5005008D6006221F5
:10072A00BA217008D0008B2270080319A12BC921A5
:10073A0070088316D000AD2B831650080319952B29
:10074A005008D400D4218312031370088316D000F2
:10075A005008233A031DB22B652B50082A3A031D71
:10076A00EE2B0230D4000630D5004730D600622185
:10077A000230D4000730D5007530D600622102302D
:10078A00D4000830D5006130D60062210230D4008E
:10079A000930D5007230D60062210230D4000A3006
:1007AA00D5006430D60062210230D4000B30D50067
:1007BA006130D60062210230D4000C30D50064309A
:1007CA00D60062210230D4000D30D5006F30D60039
:0C07DA006221F02B652B5008F000080095
:1007E600831603178C1CF92B0000F32B03135008F8
:1007F600831203178D008316031351088312031700
:100806008C0083168C130C150B08F0008B135530D7
:100816008D00AA308D008C14F01B132C8B13142C16
:060826008B170C11080005
:10082C00282C803083160313D0003B2CC030D00012
:10083C003B2C9430D0003B2CD430D0003B2C80305F
:10084C00D0003B2C831603135008013A0319172CC4
:10085C005008023A03191C2C5008033A03191F2C98
:10086C005008043A0319222C252C5103F00050088F
:10087C00F0077008D0007008D700E32083164F10E3
:10088C00D30153085207840000080319552C530850
:10089C00520784000008D400A021D30A472C4F141F
:0208AC00080042
:1008AE008316031385120512051085100511851187
:1008BE008312851205128511051185100510682009
:1008CE006820682085140514851675208512682009
:1008DE00851675208512682085167520851268206C
:1008EE0005108516752085126820851675208512CF
:1008FE0085108515851675208512682085110514BD
:10090E0085167520851205108516752085126820AE
:10091E00851675208512051485167520851268209A
:10092E000510851675208512851505158514051477
:0E093E00851675208512682083164F14080058
:10094C00831603139816903083129800831687171A
:10095C00071383128C1EB52C1A08F000AF2C08005C
:0C096C0083120313950117129712080064
:10097800463083160313DD004A225A210B30FB0050
:100988002630FC005D30FD00FD0BC82CFC0BC82C8C
:10099800FB0BC82C00000000832241308316DC00CA
:1009A8000230FB000430FC00BA30FD00FD0BDA2CED
:1009B800FC0BDA2CFB0BDA2C0000F82CFD0BE22CDC
:1009C800FC0BE22CFB0BE22CF82CFD0BE92CFC0BAE
:1009D800E92CFB0BE92CF82CFD0BF02CFC0BF02C74
:1009E800FB0BF02C0000000083163230DD004A2299
:1009F8005A210B30FB002630FC005D30FD00FD0B5A
:100A0800032DFC0B032DFB0B032D0000000083229C
:020A18000800D4
:100A1A00831603135008831203178D0083168C1351
:0A0A2A000C1483120C08F000080001
:0A0A3400FF3083160313880008004A
:100A3E0099218A110A128000840AE50A0319E60A2E
:080A4E00F003031D1F2D080039
:100A56008C26013083160313D0000D25700803136E
:100A6600EE0002308316D0000D2570080313ED004A
:100A760003308316D0000D2570080313EF000430F1
:100A86008316D0000D25700883160313CC0083301F
:100A96008100833083128100A0308B00850183168C
:100AA6008501831286018316860183120317871335
:100AB6008813031312149214F93083169200B62485
:100AC6008316031788018901193003139900181535
:100AD600A6241A2557240130D700E3200C308316AC
:100AE600D700E320EA01EB01EC01E901E701E801A7
:100AF60001308316D700E32001308316D000013081
:100B0600D1003330D20016240230D0000130D1009B
:100B16003930D2001624BA2170088312E8008B22DD
:100B260070080319982D0130E800680803198E2D06
:100B360001308316D700E32001308316D000013040
:100B4600D1002630D2001624A9216523700883120D
:100B5600EE0001308316D700E32001308316D00063
:100B66000130D1004830D20016240230D0000130C6
:100B7600D1005430D2001624A92101308316D700A3
:100B8600E32001308316D0000130D100AE30D20010
:100B960016241830D000922270088312ED0001301E
:100BA6008316D700E32001308316D0000130D10030
:100BB600BE30D20016243C30D00092227008831238
:100BC600EF0001308316D700E32001308316D000F2
:100BD6000130D100A030D20016243C30D000922241
:100BE6007008CC000130D00083126E088316D10045
:100BF600F32302300313D00083126D088316D1004D
:100C0600F32303300313D00083126F088316D10039
:100C1600F32304300313D0004C08D100F3238312CE
:100C26000313EA01EB01EC01E901E7017B2D1A2E22
:100D1800263084003F3083120313F0002030E500B2
:100D28000630E6001F25A03084002C308312031300
:0E0D3800F0005F30E5000630E6001F250800E1
:100C400045346C3469346A3461342034743461342A
:0A0C50006D346134F1346F34003468
:0C0C5A0048346F346C34613420340034B2
:100C66005034723465347334203475346E346134E0
:0E0C760020347434653463346C3461340034DB
:100C840043346134643461342034633475346134FE
:080C94006E3474346F34003437
:100C9C0061346C3469346D3465346E34743461345D
:100CAC00723420346D346134733463346F3474347F
:020CBC00003402
:100CBE00233420346434653420347334653467341B
:0C0CCE0075346E3464346F3473340034B9
:100CDA004E3475346D34653472346F342034643470
:100CEA006534203468346F347234613473340034B8
:100CFA002034233420346434653420346D34693428
:0C0D0A006E34753474346F34733400346C
:04400E00F42F000784
:00000001FF
