:02000000782E58
:10000800FF00030E83018316CF000A088312EF0056
:100018008A017008A6007108A5007208A400740877
:10002800A3007B08A2007C08A1007D08A0000B1D8E
:1000380055288316CD0A0319CE0A4E08033A031D24
:100048002728E8304D06031D3D28CD01CE01831237
:10005800EE0A060AF000700886006E083C3A031D96
:100068003D28EE01EC0A6C083C3A031D3D28EC01E2
:10007800EA0A83126E086506031D55286C0868068F
:10008800031D55286A086D06031D55286B0883163D
:10009800DD00BF258316CD01CE018312EE01EC01F0
:1000A800EA010B11823081002608F0002508F100D2
:1000B8002408F2002308F4002208FB002108FC00B1
:1000C8002008FD006F088A0083164F0E8300FF0E7C
:0400D8007F0E09008E
:1000DC000F3083120313FC004730FD00FD0B742816
:0A00EC00FC0B74280000000008005F
:0600F600000000000800FC
:0E00FC00213083120313FD00FD0B8228080043
:10010A00063083120313FD00FD0B89280000080046
:10011A0083120313FB01FA01F9018030F800F10C94
:10012A00F00C031CA1287408F90775080318750F49
:10013A00FA070318FB0A0310F01FA9287408FA0724
:10014A0075080318750FFB07FB0CFA0CF90CF80C71
:10015A00031C94287B08F3007A08F2007908F1005E
:06016A007808F000080017
:1001700083160313D801DA01DB011030DC000430F0
:100180005B020318E628F0308312880083165C09AE
:1001900088007B207B200F3083120805F000700858
:1001A0008316D90070080319E0285A08D8005908A6
:1001B0000319DE28D90CD913D80AD7280430DB005C
:1001C000DC0D5C100430DA07DB0ABF285808F000A9
:0201D000080025
:1001D20083160313D81BF02883128511F228831289
:1001E20085158316581BF82883120511FA288312E5
:1001F20005158316D81A0029831285100229831245
:1002020085148316581A0829831205100A298312A5
:100212000514831650181029831285161229831289
:10022200851205167B2005128316D8191B29831205
:1002320085111D29831285158316581923298312C6
:1002420005112529831205158316D8182B29831227
:1002520085102D2983128514831658183329831289
:100262000510352983120514831650183B29831271
:1002720085163D298312851205167B2005128316E9
:0C028200501C45296E2046297E200800F3
:0E028E008312031367088A00660882000800C6
:10029C00831603130711831212150C3097040800F0
:1002AC008929313083120313F000CB293230F0004E
:1002BC00CB293330F000CB294130F000CB2934303E
:1002CC00F000CB293530F000CB293630F000CB29AB
:1002DC004230F000CB293730F000CB293830F00019
:1002EC00CB293930F000CB294330F000CB292A3010
:1002FC00F000CB293030F000CB292330F000CB2993
:10030C004430F000CB29831603135508013A031926
:10031C0057295508023A03195C295508033A031961
:10032C005F295508043A031962295508053A03193F
:10033C0065295508063A031968295508073A03191F
:10034C006B295508083A03196E295508093A0319FF
:10035C00712955080A3A0319742955080B3A0319DF
:10036C00772955080C3A03197A2955080D3A0319BF
:10037C007D2955080E3A0319802955080F3A03199F
:0C038C0083295508103A0319862908003F
:10039800B8207008D5000F3083120805F000031943
:0E03A800D7298520CF2983165508F0000800BC
:1003B6008316031350105508D800E92083165014ED
:0203C60008002D
:1003C800831203137008F100F0010830FC00710873
:1003D800F40C0318F329FC0BEC29F1010034031089
:1003E800F829F40C0318F107F10CF00CFC0BF529B3
:0203F8000800FB
:1003FA000F2A803083160313D500222AC030D50075
:10040A00222A9430D500222AD430D500222A8030DC
:10041A00D500222A831603135508013A0319FE2927
:10042A005508023A0319032A5508033A0319062AFA
:10043A005508043A0319092A0C2A5603F0005508EC
:10044A00F0077008D50050147008D800E920831608
:0E045A0050105708D800E920831650140800EF
:10046800831203131A08F100981C3C2A1812181654
:060478007108F00008000D
:10047E00063083120313FB001330FC00AD30FD0079
:10048E00FD0B472AFC0B472AFB0B472A00000000F6
:02049E00080054
:1004A000831603131208013EF000F1010318F10A4C
:1004B0005E08F400F5018D200630F2007008F400AB
:1004C0007108F500720803196A2AF50CF40CF5138B
:1004D000FF3E632A0430F1007408F000710803192C
:1004E000752AF00D7010FF3E6F2A30307005F30052
:1004F0007408F0007508F100F10CF00CF113F10C28
:10050000F00CF113700895000F30970573089704ED
:020510000800E1
:1005120083160313071583121211F0309705080092
:0E0522000030831203138C1A0130F000080021
:1005300083160313D101CC217008D30091227008D7
:100540000319A72A342270088316D300B32A83160E
:10055000530803199B2A5308D5005621831203130D
:1005600070088316D3000230D5000730D600530838
:10057000D700FD213F2283165308413A0319D52A9B
:100580005308423A0319D52A5308433A0319D52A86
:100590005308443A0319D52A5308233A0319D52A94
:1005A00053082A3A0319D52AFA2A0130D500013016
:1005B000D6006E30D700FD210130D5000230D600C4
:1005C0006F30D700FD210130D5000430D6006E30E9
:1005D000D700FD210130D5000530D6007530D70099
:1005E000FD210130D5000630D6006D30D700FD2149
:1005F0003F229B2A8316D10A5108013A031D512B31
:1006000030305302F100F201031CF2038030F0009D
:10061000803072067002031D0F2B7108023C031C10
:10062000512B30305302D2000230D5000730D600B3
:100630005308D700FD21CC217008D3009122700807
:100640000319272B342270088316D300332B83160B
:10065000530803191B2B5308D5005621831203138B
:1006600070088316D3000230D5000730D600530837
:10067000D700FD213F2283165308233A031D412B47
:10068000982A53082A3A031D4F2B0230D500073011
:10069000D60030305207D700FD213F22502BBB2A15
:1006A000CF2B83165108023A031D8B2B3030530297
:1006B000F100F201031CF2038030F000803072067A
:1006C0007002031D652B7108043C031C8B2B023048
:1006D000D5000730D60030305207D700FD2130302A
:1006E0005302D4000A30F0005208F400E4217008EC
:1006F00083165407D2000230D5000830D6005308C4
:10070000D700FD210230D5000A30D6005208D700AC
:10071000FD213F22CF2B83165108023A031DC32B24
:1007200030305302F100F201031CF20380307206F4
:10073000F00080307002031D9F2B05307102031CF6
:10074000C32B0130D800E92001308316D5000130D9
:10075000D6006D30D700FD210130D5000230D60023
:100760006130D700FD210130D5000330D60078304C
:10077000D700FD210130D5000530D6007430D700F8
:10078000FD213F22982A303083165302D2000230D6
:10079000D5000730D6005308D700FD213F2283162D
:0607A0005208F000080001
:1007A600CC217008D100912270080319DF2B342266
:1007B60070088316D100EB2B831651080319D32B2F
:1007C6005108D50056218312031370088316D100F1
:1007D6005108413A0319FC2B5108423A0319FC2BE4
:1007E6005108433A0319FC2B5108443A0319FC2BD0
:1007F600212C0230D5000530D6005108D700FD2146
:10080600CC217008D1009122700803190F2C3422D4
:1008160070088316D1001B2C831651080319032C6C
:100826005108D50056218312031370088316D10090
:100836005108233A031D202CD32B222CD32B5108ED
:04084600F0000800B6
:10084A0083160313D101CC217008D30091227008BA
:10085A000319342C342270088316D300402C8316D3
:10086A0053080319282C5308D50056218312031361
:10087A0070088316D3000230D5000730D60053081B
:10088A00D700FD213F2283165308413A0319622CEF
:10089A005308423A0319622C5308433A0319622C4B
:1008AA005308443A0319622C5308233A0319622C59
:1008BA0053082A3A0319622C872C0130D5000130DB
:1008CA00D6006E30D700FD210130D5000230D600A7
:1008DA006F30D700FD210130D5000330D6006E30CD
:1008EA00D700FD210130D5000430D6007530D7007D
:1008FA00FD210130D5000530D6006D30D700FD212D
:10090A003F22282C8316D10A5108013A031DEF2CE5
:10091A0030305302F100F201031CF2038030F00080
:10092A00803072067002031D9C2C7108053C031C62
:10093A00EF2C30305302F100F201031CF203803035
:10094A007206F00080307002031DAD2C0030710277
:10095A00031CEF2C30305302D2000230D50007308E
:10096A00D6005308D700FD21CC217008D30091226C
:10097A0070080319C52C342270088316D300D12CB1
:10098A00831653080319B92C5308D500562183122C
:10099A00031370088316D3000230D5000730D6003F
:1009AA005308D700FD213F2283165308233A031D1B
:1009BA00DF2C252C53082A3A031DED2C0230D500D2
:1009CA000730D60030305207D700FD213F22EE2CE7
:1009DA00482C462D83165108023A031D3A2D303011
:1009EA005302F100F201031CF2038030F000803060
:1009FA0072067002031D032D7108093C031C3A2D6F
:100A0A0030305302F100F201031CF2038030720607
:100A1A00F00080307002031D142D00307102031C97
:100A2A003A2D0230D5000730D60030305207D700B1
:100A3A00FD2130305302D4000A30F0005208F4008D
:100A4A00E421700883165407D2000230D50008301A
:100A5A00D6005308D700FD210230D5000A30D6004F
:100A6A005208D700FD213F22462D3030831653020B
:100A7A00D2000230D5000730D6005308D700FD2136
:0A0A8A003F2283165208F000080016
:100A9400831603178C1C502D00004A2D0313510894
:100AA400831203178D00831603135208831203174E
:100AB4008C0083168C130C150B08F0008B13553027
:100AC4008D00AA308D008C14F01B6A2D8B136B2DB6
:060AD4008B170C11080055
:100ADA007F2D803083160313D100922DC030D100B0
:100AEA00922D9430D100922DD430D100922D8030A5
:100AFA00D100922D831603135108013A03196E2D62
:100B0A005108023A0319732D5108033A0319762D35
:100B1A005108043A0319792D7C2D5203F00051082B
:100B2A00F0077008D1007008D800E9208316501029
:100B3A00D40154085307840000080319AC2D540843
:100B4A00530784000008D500DB21D40A9E2D5014D7
:020B5A00080091
:100B5C0047218A110A128000840AE60A0319E70A5F
:080B6C00F003031DAE2D08008B
:0A0B7400FF30831603138800080009
:100B7E00F03083160313DE0050224E210B30FB00A3
:100B8E002630FC005D30FD00FD0BCB2DFC0BCB2D7C
:100B9E00FB0BCB2D00000000892241308316DD00B7
:100BAE000B30FB002630FC005D30FD00FD0BDD2D13
:100BBE00FC0BDD2DFB0BDD2D00000000FE2DFD0BD3
:100BCE00E62DFC0BE62DFB0BE62D00000000FE2DA6
:100BDE00FD0BEF2DFC0BEF2DFB0BEF2D0000FE2D73
:100BEE00FD0BF72DFC0BF72DFB0BF72D00008316DD
:100BFE003230DE0050224E210B30FB002630FC003E
:100C0E005D30FD00FD0B092EFC0B092EFB0B092E92
:080C1E0000000000892208001B
:0C0C2600831203139501171297120800A7
:100C320083160313051285120510851005118511FF
:100C420083120512851285110511851005106E207B
:100C52006E206E208514051405167B2005126E2069
:100C620005167B2005126E2005167B2005126E20CC
:100C7200051005167B2005126E2005167B20051235
:100C82008510851505167B2005126E208511051429
:100C920005167B200512051005167B2005126E2015
:100CA20005167B200512051405167B2005126E2001
:100CB200051005167B2005128515051585140514EA
:0E0CC20005167B2005126E20831650140800C4
:100CD0008316031398169030831298008316871793
:100CE000071383128C1E772E1A08F000712E08004D
:100CF000BC27833083160313810083308312810065
:100D0000A0308B008501831685018312860183162E
:100D10008601831203178713881303131214921486
:100D2000F930831692001326831603178801890170
:100D300019300313990018156826BA2519260130B1
:100D4000D800E9200C308316D800E9208316CD01A5
:100D5000CE018312EE01EC01EA01E90101308316B4
:100D6000D800E92001308316D1000130D200433091
:100D7000D3006D250230D1000130D2005630D300AF
:100D80006D25CC2170088312E900912270080319A7
:100D9000CB2E0130E90069080319C12E01308316FA
:100DA000D800E92001308316D1000130D20049304B
:100DB000D3006D253F22D32370088312EB0001304E
:100DC0008316D800E92001308316D1000130D2000B
:100DD000C130D3006D250230D1000130D200A030E7
:100DE000D3006D253F2201308316D800E920013061
:100DF0008316D1000130D200B130D3006D25982286
:100E000070088312ED0001308316D800E92001300C
:100E10008316D1000130D2002730D3006D25252460
:100E200070088312E80001308316D800E9200130F1
:100E30008316D1000130D2003530D3006D25252432
:100E400070088312E50001308316D10083126B080D
:100E50008316D2004A2502300313D10083126D0895
:100E60008316D2004A2503300313D1008312680889
:100E70008316D2004A2504300313D100831265087B
:100E80008316D2004A250313CD01CE018312EE0151
:080E9000EC01EA01AE2E4B2F2C
:100F7800273084003E3083120313F0005130E6001E
:100F88000730E700AE25A03084002D300313F000B1
:0C0F98008F30E6000730E700AE250800AF
:100EA2002034233420346434653420346D3469347E
:0C0EB2006E34753474346F3473340034C3
:100EBE002334203464346534203473346534673419
:0C0ECE0075346E3464346F3473340034B7
:0C0EDA0048346F346C3461342034003430
:100EE60045346C3469346A34613420347434613482
:0A0EF6006D346134F1346F340034C0
:100F00005034723465347334203475346E34613443
:0E0F100020347434653463346C34613400343E
:100F1E0061346C3469346D3465346E3474346134D8
:100F2E00723420346D346134733463346F347434FA
:020F3E0000347D
:100F40004E3475346D34653472346F342034643407
:100F50006534203468346F3472346134733400344F
:100F6000433461346434613420346334753461341F
:080F70006E3474346F34003458
:04400E00F42F000784
:00000001FF
