:02000000522983
:10000800FF00030E8301A7000A08A8008A010B1D40
:100018004128A50A0319A60A833081000B11E8308C
:10002800A5000330A600A501A601A00A3C30A00047
:10003800A001A10A3C30A100A101A20A0230AD0032
:10004800D020031320087006031D41280330AD009B
:10005800D020031321087006031D41280430AD0089
:10006800D020031322087006031D41280130AD007B
:10007800D02070080313AD00DC2028088A00270E62
:080088008300FF0E7F0E09004A
:1000900083120313FB01FA01F9018030F800F10C1F
:1000A000F00C031C5C287408F90775080318750F19
:1000B000FA070318FB0A0310F01F64287408FA07F4
:1000C00075080318750FFB07FB0CFA0CF90CF80CFC
:1000D000031C4F287B08F3007A08F2007908F1002E
:0600E0007808F0000800A2
:1000E60083160313071583121211F03097050800C3
:1000F600831603131208013EF000F1010318F10AFA
:1001060083122E08F400F50148200630F20070082C
:10011600F4007108F500720803199628F50CF40C22
:10012600F513FF3E8F280430F1007408F0007108C3
:100136000319A128F00D7010FF3E9B283030700582
:10014600F3007408F0007508F100F10CF00CF113DF
:10015600F10CF00CF113700895000F309705730839
:0401660097040800F2
:0E016A008312031324088A0023088200080071
:10017800831603130711831212150C309704080015
:10018800B5208A110A128000840AA30A0319A40A56
:08019800F003031DC428080058
:1001A000831203132D0803178D0083168C130C1470
:0801B00083120C08F0000800A6
:1001B800BC20FF30AE007B200830FB009D30FC00E7
:1001C8000530FD00FD0BE628FC0BE628FB0BE628B6
:1001D8000000000073202D08413A031D0229063053
:1001E800FB001330FC00AD30FD00FD0BF928FC0BC3
:1001F800F928FB0BF9280000000038292D08423A9D
:10020800031D15291030FB003930FC000D30FD00AE
:10021800FD0B0C29FC0B0C29FB0B0C290000000022
:1002280038292D08433A031D27291530FB004B3088
:10023800FC00BE30FD00FD0B1F29FC0B1F29FB0B2A
:100248001F29000038292D08443A031D38291A307F
:10025800FB005E30FC006E30FD00FD0B3129FC0B0D
:100268003129FB0B31290000BC201E30AE007B2059
:100278000830FB009D30FC000530FD00FD0B4229D5
:10028800FC0B4229FB0B42290000000073200800E8
:0C0298008312031395011712971208003F
:1002A4008330831603138100833083128100A030CE
:1002B4008B008501831685018312870183168701CC
:1002C4008312031787138813031312149214F9303B
:1002D400831692004C21A501A601A001A101A2014F
:0402E40072297329DF
:04400E00F22F000786
:00000001FF
