:02000000382E98
:10000800FF00030E83018316CF000A08CE008A0181
:1000180070088312A6007108A5007208A40074086D
:10002800A3007B08A2007C08A1007D08A0000B1D8E
:100038005428EB0A0319EC0A6C08033A031D262816
:10004800E8306B06031D3B28EB01EC01ED0A060ABC
:10005800F000700886006D083C3A031D3B28ED014E
:10006800EA0A6A083C3A031D3B28EA01E80A6D08D7
:1000780083164D06031D542883126A0883164C06FE
:10008800031D5428831268086E06031D54286F0840
:100098008316DD00C825EB01EC01ED01EA01E8015A
:1000A80083120B11823081002608F0002508F10028
:1000B8002408F2002308F4002208FB002108FC00B1
:1000C8002008FD0083164E088A004F0E8300FF0E9D
:0400D8007F0E09008E
:1000DC000F3083120313FC004730FD00FD0B742816
:0A00EC00FC0B74280000000008005F
:0600F600000000000800FC
:0E00FC00213083120313FD00FD0B8228080043
:10010A00063083120313FD00FD0B89280000080046
:10011A0083120313FB01FA01F9018030F800F10C94
:10012A00F00C031CA1287408F90775080318750F49
:10013A00FA070318FB0A0310F01FA9287408FA0724
:10014A0075080318750FFB07FB0CFA0CF90CF80C71
:10015A00031C94287B08F3007A08F2007908F1005E
:06016A007808F000080017
:1001700083160313D801DA01DB011030DC000430F0
:100180005B020318E628F0308312880083165C09AE
:1001900088007B207B200F3083120805F000700858
:1001A0008316D90070080319E0285A08D8005908A6
:1001B0000319DE28D90CD913D80AD7280430DB005C
:1001C000DC0D5C100430DA07DB0ABF285808F000A9
:0201D000080025
:1001D20083160313D81BF02883128511F228831289
:1001E20085158316581BF82883120511FA288312E5
:1001F20005158316D81A0029831285100229831245
:1002020085148316581A0829831205100A298312A5
:100212000514831650181029831205161229831209
:10022200051285167B2085128316D8191B29831285
:1002320085111D29831285158316581923298312C6
:1002420005112529831205158316D8182B29831227
:1002520085102D2983128514831658183329831289
:100262000510352983120514831650183B29831271
:1002720005163D298312051285167B2085128316E9
:0C028200501C45296E2046297E200800F3
:10028E008316031350105508D800E9208316501416
:02029E00080056
:1002A000831603130711831212150C3097040800EC
:1002B0008B29313083120313F000CD293230F00046
:1002C000CD293330F000CD294130F000CD29343034
:1002D000F000CD293530F000CD293630F000CD29A1
:1002E0004230F000CD293730F000CD293830F00011
:1002F000CD293930F000CD294330F000CD292A3006
:10030000F000CD293030F000CD292330F000CD2988
:100310004430F000CD29831603135508013A031920
:1003200059295508023A03195E295508033A031959
:1003300061295508043A031964295508053A031937
:1003400067295508063A03196A295508073A031917
:100350006D295508083A031970295508093A0319F7
:10036000732955080A3A0319762955080B3A0319D7
:10037000792955080C3A03197C2955080D3A0319B7
:100380007F2955080E3A0319822955080F3A031997
:0C03900085295508103A03198829080037
:10039C00B8207008D5000F3083120805F00003193F
:0E03AC00D9298520D12983165508F0000800B4
:0E03BA008312031367088A0066088200080099
:1003C800831203137008F100F0010830FC00710873
:1003D800F40C0318F329FC0BEC29F1010034031089
:1003E800F829F40C0318F107F10CF00CFC0BF529B3
:0203F8000800FB
:1003FA000F2A803083160313D500222AC030D50075
:10040A00222A9430D500222AD430D500222A8030DC
:10041A00D500222A831603135508013A0319FE2927
:10042A005508023A0319032A5508033A0319062AFA
:10043A005508043A0319092A0C2A5603F0005508EC
:10044A00F0077008D50050147008D800E920831608
:0E045A0050105708D800E920831650140800EF
:10046800831203131A08F100981C3C2A1812181654
:060478007108F00008000D
:10047E00063083120313FB001330FC00AD30FD0079
:10048E00FD0B472AFC0B472AFB0B472A00000000F6
:02049E00080054
:1004A000831603131208013EF000F1010318F10A4C
:1004B0005E08F400F5018D200630F2007008F400AB
:1004C0007108F500720803196A2AF50CF40CF5138B
:1004D000FF3E632A0430F1007408F000710803192C
:1004E000752AF00D7010FF3E6F2A30307005F30052
:1004F0007408F0007508F100F10CF00CF113F10C28
:10050000F00CF113700895000F30970573089704ED
:020510000800E1
:1005120083160313071583121211F0309705080092
:0E0522000030831203138C1A0130F000080021
:1005300083160313D101CE217008D30091227008D5
:100540000319A72A342270088316D300B32A83160E
:10055000530803199B2A5308D5005821831203130B
:1005600070088316D3000230D5000730D600530838
:10057000D700FD213F2283165308413A0319D52A9B
:100580005308423A0319D52A5308433A0319D52A86
:100590005308443A0319D52A5308233A0319D52A94
:1005A00053082A3A0319D52AD62A9B2AD10A510878
:1005B000013A031D2C2B30305302F100F201031CD1
:1005C000F2038030F000803072067002031DEA2AC8
:1005D0007108023C031C2C2B30305302D200023035
:1005E000D5000730D6005308D700FD21CE21700872
:1005F000D300912270080319022B3422700883164D
:10060000D3000E2B831653080319F62A5308D5007E
:1006100058218312031370088316D3000230D500CB
:100620000730D6005308D700FD213F228316530818
:10063000233A031D1C2B982A53082A3A031D2A2B00
:100640000230D5000730D60030305207D700FD21E8
:100650003F222B2BBB2AAA2B83165108023A031DDB
:10066000662B30305302F100F201031CF20380309C
:10067000F000803072067002031D402B7108043CAC
:10068000031C662B0230D5000730D60030305207ED
:10069000D700FD2130305302D4000A30F000520858
:1006A000F400E421700883165407D2000230D5000C
:1006B0000830D6005308D700FD210230D5000A309B
:1006C000D6005208D700FD213F22AA2B83165108DD
:1006D000023A031D9E2B30305302F100F201031C3D
:1006E000F20380307206F00080307002031D7A2B16
:1006F00005307102031C9E2B0130D800E920023026
:100700008316D5000130D6006D30D700FD210230B0
:10071000D5000230D6006130D700FD210230D5006F
:100720000330D6007830D700FD210230D5000530E7
:10073000D6007430D700FD213F22982A303083162E
:100740005302D2000230D5000730D6005308D7003C
:0C075000FD213F2283165208F000080033
:10075C00CE217008D100912270080319BA2B3422D3
:10076C0070088316D100C62B831651080319AE2BC3
:10077C005108D50058218312031370088316D10039
:10078C005108413A0319D72B5108423A0319D72B78
:10079C005108433A0319D72B5108443A0319D72B64
:1007AC00FC2B0230D5000530D6005108D700FD21B6
:1007BC00CE217008D100912270080319EA2B342243
:1007CC0070088316D100F62B831651080319DE2B03
:1007DC005108D50058218312031370088316D100D9
:1007EC005108233A031DFB2BAE2BFD2BAE2B5108CE
:0407FC00F000080001
:100800008316031385120512051085100511851135
:1008100083128512051285110511851005106E20B1
:100820006E206E208514051485167B2085126E209F
:1008300085167B2085126E2085167B2085126E2002
:10084000051085167B2085126E2085167B2085126B
:100850008510851585167B2085126E20851105145F
:1008600085167B208512051085167B2085126E204B
:1008700085167B208512051485167B2085126E2037
:10088000051085167B208512851505158514051420
:0E08900085167B2085126E20831650140800FA
:10089E00831603178C1C552C00004F2C0313510884
:1008AE00831203178D008316031352088312031746
:1008BE008C0083168C130C150B08F0008B1355301F
:1008CE008D00AA308D008C14F01B6F2C8B13702CA6
:0608DE008B170C1108004D
:1008E400842C803083160313D100972CC030D100A0
:1008F400972C9430D100972CD430D100972C803091
:10090400D100972C831603135108013A0319732C51
:100914005108023A0319782C5108033A03197B2C25
:100924005108043A03197E2C812C5203F00051081B
:10093400F0077008D1007008D800E9208316501021
:10094400D40154085307840000080319B12C540837
:10095400530784000008D5004721D40AA32C50145F
:02096400080089
:1009660083160313D101CE217008D300912270089B
:100976000319C22C342270088316D300CE2C83169A
:1009860053080319B62C5308D500582183120313B4
:1009960070088316D3000230D5000730D6005308FE
:1009A600D700FD213F2283165308413A0319F02C44
:1009B6005308423A0319F02C5308433A0319F02C12
:1009C6005308443A0319F02C5308233A0319F02C20
:1009D60053082A3A0319F02CF12CB62CD10A5108E7
:1009E600013A031D582D30305302F100F201031C69
:1009F600F2038030F000803072067002031D052D70
:100A06007108053C031C582D30305302F100F201E9
:100A1600031CF20380307206F00080307002031D62
:100A2600162D00307102031C582D30305302D200AF
:100A36000230D5000730D6005308D700FD21CE215D
:100A46007008D3009122700803192E2D34227008E5
:100A56008316D3003A2D831653080319222D530803
:100A6600D50058218312031370088316D300023071
:100A7600D5000730D6005308D700FD213F22831644
:100A86005308233A031D482DB32C53082A3A031D55
:100A9600562D0230D5000730D60030305207D70029
:100AA600FD213F22572DD62CAF2D83165108023A31
:100AB600031DA32D30305302F100F201031CF20393
:100AC6008030F000803072067002031D6C2D7108B4
:100AD600093C031CA32D30305302F100F201031C24
:100AE600F20380307206F00080307002031D7D2D07
:100AF60000307102031CA32D0230D5000730D6004A
:100B060030305207D700FD2130305302D4000A306E
:100B1600F0005208F400E421700883165407D2004E
:100B26000230D5000830D6005308D700FD21023028
:100B3600D5000A30D6005208D700FD213F22AF2D3E
:100B4600303083165302D2000230D5000730D6006B
:100B56005308D700FD213F2283165208F0000800F3
:0A0B6600FF30831603138800080017
:100B700083160313981690308312980083168717F4
:100B8000071383128C1EC72D1A08F000C12D080010
:100B9000463083160313DE00502250210B30FB0039
:100BA0002630FC005D30FD00FD0BD42DFC0BD42D58
:100BB000FB0BD42D00000000892241308316DD009C
:100BC0000230FB000430FC00BA30FD00FD0BE62DC6
:100BD000FC0BE62DFB0BE62D0000042EFD0BEE2D8D
:100BE000FC0BEE2DFB0BEE2D042EFD0BF52DFC0B5F
:100BF000F52DFB0BF52D042EFD0BFC2DFC0BFC2D18
:100C0000FB0BFC2D0000000083163230DE0050226A
:100C100050210B30FB002630FC005D30FD00FD0B49
:100C20000F2EFC0B0F2EFB0B0F2E00000000892255
:020C30000800BA
:100C3200831603135108831203178D0083168C1336
:0A0C42000C1483120C08F0000800E7
:100C4C00DD218A110A128000840AE60A0319E70AD8
:080C5C00F003031D262E080021
:0C0C640083120313950117129712080069
:100C70008E27013083160313D10019267008031341
:100C8000EF0002308316D100192670080313EE001E
:100C900003308316D1001926700883160313CC0085
:100CA0000430D1001926700883160313CD00833059
:100CB0008100833083128100A0308B008501831670
:100CC0008501831286018316860183120317871319
:100CD0008813031312149214F930831692003226EB
:100CE0008316031788018901193003139900181519
:100CF000B825B32500240130D800E9200C30831634
:100D0000D800E920EB01EC01ED01EA01E801E9017D
:100D100001308316D800E92001308316D10001305C
:100D2000D2003430D30072240230D1000130D2001E
:100D30003A30D3007224CE2170088312E900912248
:100D400070080319A52E0130E900690803199B2ECC
:100D500001308316D800E92001308316D10001301C
:100D6000D2002730D30072243F22AE2370088312B2
:100D7000EF0001308316D800E92001308316D1003E
:100D80000130D2004930D30072240230D10001304A
:100D9000D2005530D30072243F2201308316D80090
:100DA000E92001308316D1000130D200AE30D300EB
:100DB0007224982270088312EE0001308316D80046
:100DC000E92001308316D1000130D200BE30D300BB
:100DD0007224B3247008CC000130D800E92001301F
:100DE0008316D1000130D200A030D3007224B32486
:100DF0007008CD000130D10083126F088316D20035
:100E00004F2402300313D10083126E088316D200E0
:100E10004F2403300313D1004C08D2004F24043078
:100E20000313D1004D08D2004F2483120313EB01AA
:0C0E3000EC01ED01EA01E801882E1D2F05
:100F1C00273084003F3083120313F0002330E600A7
:100F2C000730E7002626A03084002C300313F00095
:0C0F3C006230E6000730E70026260800BF
:100E460045346C3469346A34613420347434613422
:0A0E56006D346134F1346F34003460
:0C0E600048346F346C34613420340034AA
:100E6C005034723465347334203475346E346134D8
:0E0E7C0020347434653463346C3461340034D3
:100E8A0043346134643461342034633475346134F6
:080E9A006E3474346F3400342F
:100EA20061346C3469346D3465346E347434613455
:100EB200723420346D346134733463346F34743477
:020EC2000034FA
:100EC4002334203464346534203473346534673413
:0C0ED40075346E3464346F3473340034B1
:100EE0004E3475346D34653472346F342034643468
:100EF0006534203468346F347234613473340034B0
:100F00002034233420346434653420346D3469341F
:0C0F10006E34753474346F347334003464
:04400E00F42F000784
:00000001FF
