:02000000E629EF
:06000600000000000800EC
:10000C000F3083120313FC004730FD00FD0B0C284E
:0A001C00FC0B0C2800000000080097
:0E002600213083120313FD00FD0B1728080084
:1000340083120313D11B2028851121288515511BF8
:100044002528051126280515D11A2A2885102B28BC
:100054008514511A2F280510302805144318342804
:10006400051635280512851603208512D1193C285A
:1000740085113D288515511941280511422805157A
:10008400D118462885104728851451184B28051087
:100094004C280514431850280516512805128516B6
:1000A40003208512431C58280620592813200800D1
:1000B40083120313CC01CE01CF011030D0000430E1
:1000C4004F0203188628F0308800500983168800F0
:1000D400032003200F3083120805F0007008CD00C0
:1000E4007008031980284E08CC004D0803197E2897
:1000F400CD0CCD13CC0A77280430CF00D00D50108E
:0E0104000430CE07CF0A61284C08F000080036
:10011200063083120313FD00FD0B8D28000008003A
:0E0122008312031340088A003F088200080081
:1001300083120313F8010830FC00700DF80D7408E9
:10014000F8020318A528F8070310F00DFC0B9D28F2
:020150000800A5
:100152008312031343104C08D1001A2043140800E1
:1001620083120313CA0103304A020318BF284A0844
:100172004907840020308000CA0AB4284A08490787
:1001820084008001CA034A084907CB000A30F40000
:100192004808F00098207808F0003030F0074B084B
:1001A2008400700880000A30F4004808F0009820AB
:1001B2007008C8007008003A031DE028E228CA034C
:0401C200C428080045
:1001C6008316031385120512051085100511851176
:1001D600831285120512851105118510051006205A
:1001E6000620062085140514851603208512062090
:1001F6008516032085120620851603208512062003
:100206000510851603208512062085160320851203
:10021600851085158516032085120620851105147F
:1002260085160320851205108516032085120620E3
:1002360085160320851205148516032085120620CF
:1002460005108516032085128515051585140514D8
:0C025600851603208512062043140800C2
:100262004329803083120313C8005629C030C800C6
:1002720056299430C8005629D430C80056298030F7
:10028200C8005629831203134808013A0319322978
:100292004808023A031937294808033A03193A2948
:1002A2004808043A03193D2940294903F000480847
:1002B200F0077008C80043147008D1001A204310D8
:0A02C2004A08D1001A204314080076
:1002CC00831203131A08F100981C6E2918121816C1
:0602DC007108F0000800AB
:1002E2008329803083120313C8009629C030C800C6
:1002F20096299430C8009629D430C80096298030B7
:10030200C8009629831203134808013A0319722977
:100312004808023A031977294808033A03197A2947
:100322004808043A03197D2980294903F000480846
:10033200F0077008C8007008D1001A204310CB01E2
:100342004B084A07840000080319AF294B084A07E3
:1003520084000008CC00A920CB0AA129431408007C
:0A036200FF30831603138800080023
:10036C005A207008C8000F300805F0000319C02986
:0A037C008920B9294808F0000800A4
:1003860091208A110A128000840ABF0A0319C00A42
:08039600F003031DC329080058
:0E039E000030831203138C1A0130F0000800A7
:1003AC0083160313981690308312980083168717C0
:1003BC00071383128C1EE5291A08F000DF290800A8
:1003CC004A3083120313A0006F30A1006830A200E2
:1003DC006E30A300A4014330A5006F30A6006C3032
:1003EC00A7006930A8006E30A9006130AA00AB01EB
:1003FC00AC012030AD002030AE002030AF00B00199
:10040C005430B1006930B2006D30B3006530B400C7
:10041C007330B5003A30B600B7014B30B8006530D8
:10042C00B9007930BA002030BB002030BC003A3023
:10043C00BD00BE01831603178801890183120313C3
:10044C00C101831686018312860119308316990027
:10045C001815D621B121E3200130D1001A200C301F
:10046C00D1001A200130C8000430C9002030CA0065
:10047C0071210230C8000330C9002530CA00712137
:10048C002930FB009630FC007F30FD00FD0B4C2A20
:10049C00FC0B4C2AFB0B4C2A0130D1001A200130EA
:1004AC00C8000130C9003830CA0071210230C800C0
:1004BC000130C9003130CA007121C201B621700867
:1004CC00C200CF21700803196F2A66217008C20080
:1004DC00E32A42080319642AA32A3130C200E32A12
:1004EC003230C200E32A3330C200E32A4130C2006A
:1004FC00E32A3430C200E32A3530C200E32A363016
:10050C00C200E32A4230C200E32A3730C200E32A99
:10051C003830C200E32A3930C200E32A4330C2002B
:10052C00E32A2A30C200E32A3030C200E32A233007
:10053C00C200E32A4430C200E32A4208013A0319FC
:10054C00732A4208023A0319762A4208033A03191D
:10055C00792A4208043A03197C2A4208053A0319FD
:10056C007F2A4208063A0319822A4208073A0319DD
:10057C00852A4208083A0319882A4208093A0319BD
:10058C008B2A42080A3A03198E2A42080B3A03199D
:10059C00912A42080C3A0319942A42080D3A03197D
:1005AC00972A42080E3A03199A2A42080F3A03195D
:1005BC009D2A4208103A0319A02A42082C06031956
:1005CC00EC2A0130C1004208AC00ED2AC10A01300E
:1005DC00C8000A30C9004208CA0031214108FF3A5C
:1005EC00031D002BC1010230C8000A30C9002D3098
:1005FC00CA0071214108C8004430C900B120023042
:10060C00C8000A30C9004430CA007121632A0D2B7E
:04400E00F42F000784
:00000001FF
